:020000040000FA
:020000001528C1
:020008002429A9
:06002A0089018801870135
:1000300086018316FF30870007308900F230880080
:10004000860183122720F820A0011F154F28831650
:100050000A309F00831241309F0008000908A20067
:10006000A2172217A2162216A2152209A200A20B7D
:100070003A284028A20B3D284328A20B4A284628AC
:10008000860106145928860186146A2886010614FA
:100090008614872886010615A20B2129AD2807188A
:1000A00052284F281521071C4F2807185528DB20F8
:1000B0002E280718522887185E285928871C592887
:1000C00087186028DB20081D662868281321592816
:1000D000152159280718522887186F286A28871C65
:1000E0006A2887187128DB201F1971281E08A300B1
:1000F000A30A1F2113210310230CA3000310230CB8
:10010000A300E02015216A28871C08007128071821
:10011000522887188C288728871C872887188E28BC
:10012000DB201B211F151F1992281F1992281E085A
:10013000A300A30A1F219D2887287130A302A31BB7
:10014000A3281321A5281521A528871C92288718E4
:10015000A728DB2015211D2187280718522887187A
:10016000B228AD28871CAD288718B428A00ADB2048
:100170001F151F19B8281F19B8281E08A300A30AA5
:100180001F21C2281321D2201721F8201521031086
:10019000230CA3000310230CA300EB201921A001C2
:1001A000F120AD28881EE5280800881A0800AD282F
:1001B000A00B2129C2281430A300A30BDD280800BE
:1001C0008420FD20A30BE02808000A30A4000621AB
:1001D000A40BD2282129881ED8200621A30BEB28A6
:1001E00008000A30A400D5200621A40BF1282129FB
:1001F0000330A400A40BFA2808002C30A6003530E8
:10020000A500A50B0129A60B012908000630A700AF
:100210001630A6001530A500A50B0129A60B012953
:10022000A70B012908000815080008110800081488
:100230000800081008008815080088110800A30BA2
:0A0240000800861515211921242954
:02400E00A23FCF
:02401000BC3FB3
:00000001FF
